S01100004932435F5369373032312E73333740
S113000000100020410400003D0400003D040000F5
S11300103D0400003D0400003D0400003D040000D8
S11300203D0400003D0400003D0400003D040000C8
S11300303D0400003D0400003D0400003D040000B8
S11300403D0400003D0400003D0400003D040000A8
S11300503D0400003D0400003D0400003D04000098
S11300603D0400003D0400003D0400003D04000088
S11300703D0400003D0400003D0400003D04000078
S11300803D0400003D0400003D0400003D04000068
S11300903D0400003D0400003D0400003D04000058
S11300A03D0400003D0400003D0300003D04000049
S11300B03D0400003D0400003D0400003D04000038
S11300C03D0400003D0400003D0400003D04000028
S11300D03D0400003D0400003D0400003D04000018
S11300E03D0400003D0400003D0400003D04000008
S11300F03D0400003D0400003D0400003D040000F8
S11301003D0400003D0400003D0400003D040000E7
S11301103D0400003D0400003D0400003D040000D7
S11301203D0400003D0400003D0400003D040000C7
S11301303D04000010B5054C237833B9044B13B1CA
S1130140044800E000BF0123237010BD7810002094
S1130150000000004813000008B5034B1BB103491D
S1130160034800E000BF08BD000000007C10002030
S113017048130000A3F5803A704700BF174B002BCB
S113018008BF134B9D46FFF7F5FF00218B460F4632
S11301901348144A121A00F0EBFF0E4B002B00D048
S11301A098470D4B002B00D09847002000210400F5
S11301B00D000D48002802D00C4800E000BF00F0FC
S11301C0B3FF2000290000F0CFF800F099FF00BF32
S11301D000000800000000000000000000100020E3
S11301E078100020B810002000000000000000007B
S11301F01F23C340DB0710B5044604D440F22B414F
S1130200044800F0CFF90120034B00FA04F4C3F8CA
S1130210A04010BD9C11000000D00340012307B58D
S113022018460222002100F0D7FC002301201A46C0
S11302301946CDE9000000F06BFC002304220221E2
S1130240032000F0C9FC032100230846042200F027
S1130250C3FC042200231146032000F0BDFC4FF030
S11302608062034BC3F880211A6003B05DF804FB7D
S113027000E100E030B585B06C46174B174D0FCB4D
S113028084E80F000221012308460B2200F0A4FC9D
S113029001230B220021022000F09EFC104B114888
S11302A0D3F8A014014041F00211C3F8A014D3F80C
S11302B09C242146024042F00202C3F89C240322FB
S11302C02846C3F8982400F067FD0022064B1A70F4
S11302D01023AB6005B030BDE81100000000014AF6
S11302E000C00340FCFFF0FF9E10002010B586B054
S11302F0ADF80400042004939DF82030ADF8060006
S113030002910DEB00010B48ADF80C20ADF8143050
S113031000F08AFE074C012808D010B10320FFF733
S113032067FF0022044B1A7006B010BD204600F08F
S113033067FDF0E70000014A9E10002008B5074B56
S11303400121D3F8202403F50053C3F820240448E2
S113035000F004FD0122034B1A7008BD00C00340E5
S11303600000014A9E1000207FB503A800F0BAFEE9
S1130370284A936DDB0313D4536B23F4FF0323F454
S1130380FE4343F4BC1343F4A0635363136B23F49D
S1130390704343F440431363136B43F4E063136308
S11303A09DF80D30012B0FD19DF80C3063B94FF03F
S11303B000531B68184B1B68184B1B68184B1B68B1
S11303C0184B1B68184B1B68184A194CD2F880301C
S11303D0184D43F00303C2F88030FFF71FFFFFF707
S11303E049FF0420FFF704FF134E227802F0FF01B7
S11303F05AB1E3238DF80C300223012200938020AC
S1130400334603A9FFF772FFEFE70422C5F8A020E3
S11304102170EAE700C00040004000200080002076
S113042000C00020000001200040012000800040A6
S11304309E10002000F0034094100020FEE700000E
S113044008B500F013F8064B064A07498B4201D35E
S1130450FFF794FE52F8040B43F8040BF6E700BFD1
S1130460001000205013000078100020044B054AAF
S11304709A60D3F8882042F47002C3F88820704749
S113048000ED00E000000000014B1868704700BF59
S113049004100020084B1B6F03F00703022B04D049
S11304A0032B05D0012B05D0FEE7044B18687047D9
S11304B0034BFBE703487047008000400410002012
S11304C008100020002D310108B5FFF7E3FF054BAC
S11304D01B6FC3F301330133B0FBF3F0024B18601D
S11304E008BD00BF0080004000100020014B1868C8
S11304F0704700BF08100020002070470048704774
S1130500002D3101174B9868C0F304400C2822D801
S1130510DFE800F0092121212121071719211B1DE2
S11305201F00114870479B6803F04073B3F1807F4C
S113053013D0B3F1007F12D00C4A002B08BF104631
S113054070470B4870470B4870470B4870470B487F
S113055070470B487047002070470A4870470A48A4
S1130560704700BF0040014A405DC60000093D00DD
S11305700024F400C0EA210180BA8C010048E8019B
S1130580005A620280841E0040420F004FF4004073
S113059070474FF47A707047014B1868704700BF7A
S11305A00C100020FEE7000038B50F4B0546D3F8C9
S11305B080300C4603F00303022B09D0032B0FD029
S11305C00A4840F64571FFF7EDFF0023184602E0A4
S11305D0FFF77AFF0B2305B1286004B1237038BDFF
S11305E0FFF790FF0523F6E700800040F8110000B4
S11305F038B5154B0546D3F820310C4603F00703F4
S1130600013B032B17D8DFE803F0020A0E12FFF7B1
S11306103BFF042305B1286004B1237038BDFFF704
S113062065FF0323F6E7FFF76DFF0523F2E7FFF706
S113063065FF0223EEE7054840F6BE71FFF7B2FFFF
S113064000231846E6E700BF00800040F8110000D0
S113065073B50024154B0194D3F88031064603F09A
S11306600303022B0D460FD0032B12D0012B15D1FF
S1130670214601A8FFF7BCFF0D230EB1019A326099
S113068005B12B7002B070BDFFF73CFF052301904C
S1130690F3E7FFF733FF02230190EEE741F2E201B3
S11306A00348FFF77FFF2346E7E700BF00800040D1
S11306B0F811000038B5124B0546D3F840310C460A
S11306C003F00303022B0BD0032B0DD0012B0FD10E
S11306D0FFF75CFF082305B1286004B1237038BD1F
S11306E0FFF75AFF0723F6E7FFF753FF0923F2E763
S11306F0044840F6EC71FFF755FF00231846EAE77B
S113070000800040F811000038B5124B0546D3F8BC
S113071060310C4603F00303022B0BD0032B0DD0E6
S1130720012B0FD1FFF732FF082305B1286004B174
S1130730237038BDFFF730FF0723F6E7FFF729FFE3
S11307400923F2E7044841F21A01FFF72BFF0023C3
S11307501846EAE700800040F811000038B5154B50
S11307600546D3F800320C4603F00703013B032B84
S113077018D8DFE803F0020A0E12FFF707FF082378
S113078005B1286004B1237038BDFFF705FF0723C6
S1130790F6E7FFF7FEFE0923F2E7FFF795FE0C23C9
S11307A0800AEDE7044841F29811FFF7FBFE0023AD
S11307B01846E5E700800040F811000038B5154BF5
S11307C00546D3F808320C4603F00703013B032B1C
S11307D018D8DFE803F0020A0E12FFF7D7FE082349
S11307E005B1286004B1237038BDFFF7D5FE072397
S11307F0F6E7FFF7CEFE0923F2E7FFF765FE0C23C9
S1130800800AEDE7044841F2CC11FFF7CBFE002348
S11308101846E5E700800040F811000038B5124B97
S11308200546D3F840320C4603F00303022B0BD0E9
S1130830032B0DD0012B0FD1FFF7A8FE082305B120
S1130840286004B1237038BDFFF7A6FE0723F6E73E
S1130850FFF79FFE0923F2E7044841F22B11FFF74B
S1130860A1FE00231846EAE700800040F8110000CA
S113087038B5104B0546D3F800310C4603F003039A
S1130880022B0BD0032B0DD0012B0FD1FFF72EFE23
S1130890032305B1286004B1237038BDFFF77CFE43
S11308A00723F6E7FFF728FE0623F2E701230020DB
S11308B0EFE700BF00800040032810B51BD005D827
S11308C0012805D0022810D000240CE00F28FBD109
S11308D00B4B1C6FC4F30134022C04D140F25B2196
S11308E00848FFF75FFE601C10BD054BD3F890402D
S11308F0C4F30464F7E7024B1C6FC4F38024F2E7EB
S113090000800040F81100001FB500230293252841
S113091074D8DFE800F013191C252A343950555ACD
S11309205F64696E73193E73735519252A2534194A
S113093050256E393939392525255A5FFFF7AAFD27
S11309400290029804B010BDFFF7BEFDF8E7FFF770
S1130950A1FD04460220FFF7AFFFB4FBF0F0EFE780
S1130960FFF7B2FD04460320F5E7FFF7ADFD0446AB
S11309700320FFF7A1FFB4FBF0F04008E0E70021FB
S113098002A8FFF765FEDCE7002102A8FFF730FEAE
S1130990D7E703934FF0E0231B695B0705D5FFF707
S11309A093FD0390039B0293CBE70DF1070103A88A
S11309B0FFF780FEF6E7002102A8FFF77BFEC0E701
S11309C0002102A8FFF7A0FEBBE7002102A8FFF761
S11309D0C5FEB6E7002102A8FFF7F0FEB1E700214B
S11309E002A8FFF745FFACE7002102A8FFF7DCFDF2
S11309F0A7E7002102A8FFF711FFA2E740F27E312A
S1130A000148FFF7CFFD9CE7F8110000EFF31080D9
S1130A1072B6704700B962B6704700001F2970B5FE
S1130A2004460D46164603D991210748FFF7BAFD3F
S1130A3036B104F58054012101FA05F5256070BD35
S1130A4004F50054F7E700BF4312000038B50D4623
S1130A500446D8B101281BD002281BD0032803D197
S1130A601F23EB40DB0704D440F22B410A48FFF775
S1130A7099FD3020012141F21003444304F18044E4
S1130A8001FA05F504F57034E55038BD7F23E8E735
S1130A900323E6E73F23E4E79C11000038B50D4645
S1130AA00446D8B101281BD002281BD0032803D147
S1130AB01F23EB40DB0704D44FF47F710A48FFF790
S1130AC071FD3020012142F21003444304F18044BB
S1130AD001FA05F504F57034E55038BD7F23E8E7E5
S1130AE00323E6E73F23E4E79C11000070B50546C5
S1130AF014460E46FFF78AFF296881EA040202EAD7
S1130B0006044C402C60BDE87040FFF783BF000032
S1130B102DE9F3470D4614461F4606469DF82890D6
S1130B209DF82C80002842D0012842D0022842D0CF
S1130B30032803D11F21E940CB0703D4BF211F4859
S1130B40FFF730FD85EA040333F0030303D0C1212A
S1130B501A48FFF727FD072C12D803214FEA840A0D
S1130B6001FA0AF1164806FA0AF20191FFF7BEFFEC
S1130B7005F003020199134802FA0AF2FFF7B6FFDF
S1130B803A4621461048FFF749FF4A4621460F4896
S1130B90FFF744FF01230E4AA340C2F82034214644
S1130BA042460C4802B0BDE8F047FFF737BF7F214B
S1130BB0C1E70321BFE73F21BDE700BF8E1200005C
S1130BC000C4034008C4034010C4034014C40340D9
S1130BD000E0034024C40340F8B50D4616461F4602
S1130BE0044658B301282BD002282BD0032803D164
S1130BF01F22EA40D30704D44FF4B0711A48FFF718
S1130C00D1FC26B129462046F7B1FFF71FFF302358
S1130C10072D4FF00F0104FB03F318D8A80006FAC0
S1130C2000F2814011481844FFF760FFDEB92946FD
S1130C302046A7B1BDE8F840FFF708BF7F22D8E7F8
S1130C400322D6E73F22D4E7FFF728FFDFE7A5F129
S1130C500800800006FA00F281400548E3E7BDE899
S1130C60F840FFF71BBFF8BD8E12000004C003401C
S1130C700CC00340F8B506460C4615469ABB40F234
S1130C800F11BDE8F8402F48FFF78CBC2E4B9E4255
S1130C9001D117203DE040F229112A48FFF782FCD8
S1130CA03AE0032F42D0294B3CE06FEAC5050544E6
S1130CB02C44B4FBF0F4013C0AD540F275112148F0
S1130CC0FFF770FC4FF4BB711E48FFF76BFC02E0AA
S1130CD0B4F5007FF6D2B3689B0702D5002C08BF99
S1130CE00124B461F8BD03F00307836823F440735F
S1130CF08360FFF78BFEB26882EA072303F4407334
S1130D005340B360FFF786FE34B9114B9E42BDD108
S1130D101620FFF7F9FD0446B3689A07C1D5032FDF
S1130D2004D00C4B53F827309C4204D84FF4AF71D5
S1130D300448FFF737FC084BD85D6843B5D140F24F
S1130D406F119EE7DA1200000080064034130000A1
S1130D500000014A281300004013000038B50B4B73
S1130D60044698420D4607D0094B984204D040F2FD
S1130D708F110848FFF716FC043425B104F580549C
S1130D800123236038BD04F50054F9E70000014A4B
S1130D9000800640DA12000038B5154B044698422C
S1130DA00D4607D0134B984204D04FF4D271124829
S1130DB0FFF7F8FB0023114A236404F50053DA63B8
S1130DC06A7804F108037AB903F5805302221A60A1
S1130DD02046D5E901122B7BFFF74CFF20462978EA
S1130DE0BDE83840FFF7BABF03F50053EEE700BF94
S1130DF00000014A00800640DA120000FFFF1F00D5
S1130E002DE9F843834B98420BD0834B984226D06C
S1130E10824840F2FB11FFF7C5FB6FF00300BDE809
S1130E20F8837F4B402505264FF000084FF0030C54
S1130E30996800F50054C26B12F4C06F15D0970581
S1130E400FD5FD225A7009221A700022026493F908
S1130E500110012900D15A7093F90100DFE7714BA9
S1130E60E0E75605EFD5FE22ECE71F78082F00F2E5
S1130E70CD80DFE817F009001F0041004C00690035
S1130E80740096009E00C2004C880A88E5060AD5C4
S1130E90120A02F0060242F0F002012119704263C4
S1130EA0C1600120BBE702F0FE02A10748BF42F087
S1130EB00102F2E7170607D5802100F50052D1633D
S1130EC04FF608721A8062E05206EAD54A88E56352
S1130ED0D70604D502221A700B784363E1E7920720
S1130EE065D507221A701B7901EBC3010B89012B0D
S1130EF0D7D10823C360D4E71706DDD45206D0D572
S1130F004A88E563970752D583F800C093E74C8875
S1130F100A88E50643BF120A02F0060242F0F00214
S1130F2002F0FE02640709D51C7942F0010201EBCC
S1130F30C4010989012904BF0821C1600421197071
S1130F400123C3604263ACE71706B5D45706A8D59E
S1130F504A88E56352072AD507221A70A1E71A794D
S1130F605F8801EBC20EBEF80890B94511D8013272
S1130F70D2B21A714F88A3F8028017F0040FC3D1BC
S1130F80FF0702D4012A7FF656AF08221A70022303
S1130F90B0E7DEF80420791C5980D25D4263062252
S1130FA0DBE7170688D457067FF57BAFE5631E7031
S1130FB041E794067FF575AF20261A7900F50054B1
S1130FC001EBC2010A89456AE6635C88A24281BFDB
S1130FD04968661C5E800D5559888A42D5D9042417
S1130FE0012AC46004D9013A914201D10822C260A5
S1130FF01A78092A3FF429AF53E7D2057FF551AF98
S11310004FF4807100F50052D1631CE74FF60932AA
S11310101A801AE70000014A00800640DA12000034
S1131020A0100020AC10002038B5284B044698428C
S11310300D4644D0264B98423ED04FF45771254874
S1131040FFF7B0FA002D3DD140F25D312148FFF7A2
S1131050A9FA1E4B9C4228D11F4B2269D00744BFDA
S11310602022E2606A88910701D5298951B3520789
S113107001D52A8A32B34FF480721A6000229D602F
S11310801A71C023E3606369DB0513D4202204F5DD
S11310900053DA63114A2046DA63236C43F4FC6399
S11310A02364BDE83840FFF7ABBE094B9C4209D12D
S11310B00B4BD2E7636AE6E70029F9D1C4E70029BC
S11310C0CAD1C1E76FF0030038BD00BF0000014A78
S11310D000800640DA120000A0100020FFFF1F006D
S11310E0AC100020054B5B69C3F38512827003F0DA
S11310F03F021B0B42700370704700BF00C00740E3
S113110008B5074B044613B1002100E000BF054BAE
S11311101868836A03B19847204600F031F800BF8D
S1131120000000004413000070B50D4D00260D4C66
S1131130641BA410A64209D10B4D00260B4C00F0F1
S113114021F8641BA410A64205D170BD55F8043BD8
S113115001369847EEE755F8043B01369847F2E725
S113116070100020701000207010002074100020F7
S113117002440346934200D1704703F8011BF9E788
S1131180FEE700BFF8B500BFF8BC08BC9E46704738
S1131190F8B500BFF8BC08BC9E467047633A5C755E
S11311A0736572735C73616D75655C73696D706C86
S11311B0696369747973747564696F5C73646B7360
S11311C05C6765636B6F5F73646B5C706C617466A2
S11311D06F726D5C656D6C69625C696E635C656D94
S11311E05F6770696F2E6800010100000000000055
S11311F0A086010000000000433A2F557365727306
S11312002F73616D75652F53696D706C69636974B3
S11312107953747564696F2F53444B732F676563F7
S11312206B6F5F73646B2F706C6174666F726D2F7C
S1131230656D6C69622F7372632F656D5F636D7585
S11312402E6300633A5C75736572735C73616D75CC
S1131250655C73696D706C696369747973747564C2
S1131260696F5C73646B735C6765636B6F5F7364F6
S11312706B5C706C6174666F726D5C656D6C6962D9
S11312805C696E635C656D5F6275732E6800433ADA
S11312902F55736572732F73616D75652F53696D67
S11312A0706C696369747953747564696F2F5344FE
S11312B04B732F6765636B6F5F73646B2F706C6127
S11312C074666F726D2F656D6C69622F7372632F14
S11312D0656D5F6770696F2E6300433A2F557365C0
S11312E072732F73616D75652F53696D706C6963CB
S11312F069747953747564696F2F53444B732F6702
S113130065636B6F5F73646B2F706C6174666F726F
S11313106D2F656D6C69622F7372632F656D5F69E4
S113132032632E630000000080841E00404B4C009A
S1131330809FD50080841E0040548900002D310117
S10B1340080911081010002037
S10B13482CEEFF7F0100000000
S1131350C0EA2101C0EA210100F049020080000036
S11313600000000000000000000000000000000079
S11313700000000000000000000000000000000069
S11313800000000000000000000000000000000059
S11313900000000000000000000000000000000049
S11313A00000000000000000000000000000000039
S11313B00000000000000000000000000000000029
S10B13C0590100003501000091
S9030441B7
